:100000000C9478030C94B0030C94B0030C94B003DC
:100010000C94B0030C94B0030C94B0030C94B00394
:100020000C94B0030C94B0030C9419290C94D528AB
:100030000C94162A0C94B0030C94B0030C94B003E7
:100040000C94B0030C94B0030C94B0030C94B00364
:100050000C94B0030C94F2290C94B0030C94B003EC
:100060000C94B0030C94B0030C94B0030C94B00344
:100070000C94B0030C94B0030C94B0030C94B00334
:100080000C94B0030C94B0030C94B0030C94B00324
:100090000C94B0030C94B0030C94B0030C94B00314
:1000A0000C94B0030C94B0030C94B0030501090246
:1000B000A10185020901A100050919012905150001
:1000C00025019505750181029501750381010501E1
:1000D000093009311581257F950275088106093897
:1000E0001581257F950175088106050C0A380215D2
:1000F00081257F950175088106C0C005010980A191
:1001000001850319012AB700150126B7009501756D
:10011000108100C0050C0901A101850419012AA064
:1001200002150126A002950175108100C00660FF2E
:100130000961A1010962150026FF0095207508815B
:10014000020963150026FF00952075089102C0057D
:10015000010906A101050719E029E7150025019508
:1001600008750181029501750881010507190029AB
:10017000FF150026FF009506750881000508190186
:100180002905950575019102950175039101C0003E
:10019000000000000000000000000000000000005F
:1001A000000000000000000000000000000000004F
:1001B0000000007E0F00D4FFFFFFC70000007800A2
:1001C000000000000000002A2B28000000000000B2
:1001D0000000000000000000000029000000002CCA
:1001E0001E3420212224342627252E362D37382769
:1001F0001E1F202122232425263333362E37381F75
:100200000405060708090A0B0C0D0E0F1011121336
:100210001415161718191A1B1C1D2F3130232D35D4
:100220000405060708090A0B0C0D0E0F1011121316
:100230001415161718191A1B1C1D2F3130354CFDBB
:10024000377A585A000004E6D6B446020021011657
:10025000000000742FE5A3E0026300D85D003D8834
:1002600089C65436C3174FE4FCECC1AC81FDFD4197
:1002700021FFB9585026689C4B8E9A02A8B94607B0
:10028000A852F1968EEFE2C5DC149070E8DEFD0A0C
:100290009A6860F901E902A4FD32E71BDA598F1E62
:1002A00024619C9B29A6D854EC794963B472192D1A
:1002B00094F0D37D85084FEFD0F6222E8E985EE71E
:1002C000D325F46C672D2203A67958640A86EE269E
:1002D00039CEA1FC3E2C98AB22DD30ABA1732D5C56
:1002E0009BC4E29CC6BC5D6D92FF9852898BE40969
:1002F0006EF2BB9F119E0F3DCF1C4B5460B68448DD
:10030000D1008972E0A13DBB9ADA7AAB6C7DC9B5A8
:10031000E2E12E75A26A35FAF69B92F6A7F66CF624
:100320002F9ACBBB3FB197DB81F80EAA661D0A6DF1
:10033000F77553D99100006ADBA7906CB712920051
:1003400001F401E4040000D1D8222EB1C467FB02FD
:100350000000000004595A29001E001F002000213F
:100360000022002D0035002E002300240025002649
:100370000027002A002B0014001A0008001500179F
:10038000002F00310030001C0018000C0012001378
:10039000003400390004001600070009000A004A72
:1003A000004C004B000B000D000E000F0033002826
:1003B00000E1001D001B000600190005004D005261
:1003C000004E0011001000360037003800E500E054
:1003D00000E300E20001512C002C00500051004FBE
:1003E000002C002C000151E600E700E4003A003B3D
:1003F000003C003D003E003F005300380025024015
:100400000041004200430044004500AF00B200B389
:1004100000B100C65CC55C5F00600061002D00019A
:10042000000100460047004800AC00AE00AB00AD44
:1004300000C85CC75C5C005D005E002E020100002D
:100440005C010001000100AA00A800A9006500CA23
:100450005CC95C59005A005B0058000100010001B2
:10046000000100010001000100C25C0100C45CC386
:100470005C620001006300580058000100010001A7
:100480000001000100010001000100010001000164
:100490000001000100010001000100010001000154
:1004A0000001000100010001000100010001000144
:1004B0000001000100010001000100010001000134
:1004C0000001000100010001000100010001000124
:1004D0000001000100010001000100010001000114
:1004E0000001000100010001000100010001000104
:1004F00000010001000100010001000100010001F4
:1005000000010001000100010001000100010001E3
:1005100000010001000100010001000100010001D3
:1005200000010001000100010001000100010001C3
:1005300000010001000100010001000100010001B3
:1005400000010001000100010001000100010001A3
:100550000001000100010001000100010001000193
:100560000001000100010001000100010001000183
:100570000001000100010001000100010001000173
:100580000001000100010001000100010001000163
:100590000001000100010001000100010001000153
:1005A0000001000100010001000100010001000143
:1005B0000001008E030000020002008A0300000315
:1005C0000001008F0300000400020074032A0605E6
:1005D00000010090030000060002007603000007FF
:1005E0000002008C030000080001009103000009D4
:1005F000000200780305060A0002007A0305060BD4
:100600000002007C0305060C0002007E0305060DB7
:10061000000200800305060E000200820305060F9B
:10062000000200840305061000020086030506117F
:100630000002008803050612000200920300001366
:100640000002009403000009025B00030100A0FA0D
:100650000904000001030101000921110100012228
:10066000400007058103080001090401000203009E
:100670000000092111010001222200070582032048
:100680000001070503032000010904020001030023
:1006900000000921110100012281000705840320C7
:1006A0000001120100020000000844787575010085
:1006B000010203011C037600690061006C003A002E
:1006C00066003600340063003200620033006300CD
:1006D00000000A03580044003700350000000C03F6
:1006E00078006900750064006900000004030904D3
:1006F00011241FBECFEFDAE0DEBFCDBF04B603FE8C
:1007000018C08091720490917304A0917404B09108
:1007100075048730904BA740B04B59F41092720487
:10072000109273041092740410927504E0E0F8E3E0
:10073000099511E0A0E0B1E0EAE8F4E602C0059016
:100740000D92A837B107D9F724E0A8E7B1E001C0BE
:100750001D92A237B207E1F70E943D2A0C941F3286
:100760000C940000E8EDF0E080818E7F8083109291
:10077000E2001092DA001092E100A0EEB0E08C915D
:1007800081608C9380818F77808319BCA7EDB0E066
:100790008C918E7F8C9380818F7E80831092590400
:1007A00008952091E4003091E50095E6A90120919B
:1007B000EC00822F817020FF06C08091E80080FF4E
:1007C00006C080E008952091E80022FD1AC08091C3
:1007D0006F04882389F0853089F08091EB0085FDD6
:1007E0000FC02091E4003091E50042175307F9F261
:1007F0009150E1F684E0089582E0089583E0089541
:1008000081E00895EF92FF920F931F93CF937C01A5
:100810008B010E94D103C82F811117C08091E8007D
:1008200085FD0BC08091E8008E778093E8000E94E0
:10083000D103882399F3C82F08C0F70181917F0164
:100840008093F1000150110949F78C2FCF911F912E
:100850000F91FF90EF900895CF93FC0180916F046A
:10086000843001F5C091E900CF702091EC00922F07
:10087000917020FD90E8C92B82E08093E90080917F
:10088000E80080FF0CC050E040E060E270E0CF0183
:100890000E9402048091E8008E778093E800CF7078
:1008A000C093E900CF9108958091670487FF13C03A
:1008B0008091E80082FF06C08091E8008B778093EA
:1008C000E80004C080916F048111F2CF08958091F7
:1008D0006F048823D9F38091E80080FFF8CF8091DE
:1008E000E8008E77ECCF982F9093E900242F762F95
:1008F00050E0891731F07091EC002091ED0050919B
:10090000F00021FD07C09F5F973071F78093E900E9
:1009100081E008953091EB003E7F3093EB00309101
:10092000ED003D7F3093ED003091EB00316030936E
:10093000EB007093EC002093ED005093F0002091B9
:10094000EE0027FDE0CF80E00895CF92DF92EF9296
:10095000FF920F931F93CF93DF93C8EDD0E0888170
:100960008F7E8883E7EDF0E080818160808384E082
:1009700082BF81E08093590488818E7F888302EE54
:1009800010E0F80110821092DA0081EEC82ED12C0E
:10099000F601108288818F778883888180688883B8
:1009A00088818F7D888319BC10926F041092660431
:1009B000109265041092640490EEE92EF12CF70178
:1009C00080818B7F808388818160888342E060E0C2
:1009D00080E00E947304F60180818E7F8083F8019D
:1009E000808181608083808188608083F70180813D
:1009F0008E7F8083888180618883DF91CF911F9172
:100A00000F91FF90EF90DF90CF900895FC018091BF
:100A10006D0490916E0486179707A0F0611571051B
:100A200029F49091E8009E779093E80090E061159A
:100A3000710551F4911108C08091E80082FF34C023
:100A400080E00895BC01F2CF80916F048823C1F14A
:100A50008530C1F18091E80083FD30C08091E800CD
:100A600082FDEACF8091E80080FFE1CF8091F30022
:100A70002091F200382F6115710519F028303105E9
:100A800058F091E02830310509F090E02091E8001D
:100A90002E772093E800CBCF81918093F1006150B5
:100AA00071092F5F3F4FE7CF80916F04882341F09A
:100AB000853041F08091E80083FFBECF81E008954A
:100AC00082E0089583E00895089580915B0408957D
:100AD0009C014FB7F8948091520490915304A091D7
:100AE0005404B09155044FBF821B930B08952FB748
:100AF000F8948091520490915304A0915404B091C1
:100B000055042FBF089520914F04309150042817A9
:100B1000390771F09093500480934F04E0914D0495
:100B2000F0914E04309721F00084F185E02D099476
:100B3000089520914B0430914C042817390771F027
:100B400090934C0480934B04E0914D04F0914E043B
:100B5000309721F00680F781E02D09940895E09107
:100B60004D04F0914E04309721F00190F081E02D7A
:100B7000099480E00895452B39F0682381E06F3FA8
:100B800009F080E08170089581E0FCCFDC01609184
:100B90006C0380916D03962F891301C00895292F4E
:100BA00030E0F901EE0FFF1FEC59FC4F40815181FD
:100BB0004A175B07A1F487E08A9FA0018B9F500D25
:100BC0001124445D5C4F81E0FA0184839613E6CFE3
:100BD0002F5F3F4F2370332720936C0308952F5FBF
:100BE0003F4F922F9370D8CF1092C9021092C80233
:100BF000ECE2F3E08581811102C0148216823796FF
:100C000083E0E436F807B1F70895E4E7F3E0848180
:100C100095812AE030E0B9010E946A3160931501A4
:100C2000868180931401828580931301848580934B
:100C3000120186859785B9010E946A31609311017E
:100C4000808980931001828980930F018489809329
:100C50000E0108958091740390917503909317018C
:100C60008093160108950E9477059C0190913902A6
:100C700080913A02982B21F030933602209335026E
:100C800090913B0280913C02982B21F030933402EA
:100C900020933302E0914D04F0914E04309749F0D7
:100CA00082E0809337020480F581E02D87E392E0B3
:100CB0000994089590913902803F59F480913A0245
:100CC00087FF0DC010923A0291110BC010923102B1
:100CD00008C0813F81F480913A0218169CF3992351
:100CE00081F080913B0290913C02892B09F064C015
:100CF000109230020895823F49F497FFF0CF10928E
:100D0000390280913A028111ECCFE0CF833F19F490
:100D10001916ACF3E4CF20913B02893F29F4121657
:100D2000F4F610923B02DBCF8A3F19F427FFD7CFAE
:100D3000F8CF20913C028B3F29F427FFD0CF1092AF
:100D40003C02CDCF8C3F19F41216CCF3C8CF843FB0
:100D500031F4809138028E7F80933802C0CF853F76
:100D600021F4809138028D7FF7CF863F21F4809166
:100D700038028B7FF1CF873F21F480913802877F43
:100D8000EBCF883F21F4809138028F7EE5CF8D3FF5
:100D900031F4809132028E7F80933202A0CF8E3F59
:100DA00021F4809132028D7FF7CF8F3F09F097CFEA
:100DB000809132028B7FF0CF08958091320280FFC4
:100DC0000CC060910F0170E07595679575956795FA
:100DD0006115710549F1862F089581FF06C0609164
:100DE0000F0170E075956795F3CF60910F0182FD5B
:100DF0000BC0909130029923A1F060910E01809177
:100E00000F01961738F0682F70E06038710500F315
:100E10008FE70895899FC001112470E00E947E3100
:100E2000F4CF61E070E0D7CF81E008958091320285
:100E300060917C0370917D0380FF16C020911301A7
:100E4000269FC001279F900D1124BC0176956795C0
:100E5000769567956038710508F043C06115710596
:100E600009F441C0862F089581FF0BC02091130122
:100E7000269FC001279F900D1124BC017695679590
:100E8000E9CF82FF09C0809113019B01829FB001CD
:100E9000839F700D1124DECF209131022223D1F2E5
:100EA0009091120180911301482F50E0291748F0CA
:100EB000CB01849FB001859F700D949F700D11240C
:100EC000C9CF289F90011124269FA001279F500D74
:100ED000369F500D1124692F70E0CA010E946A31BB
:100EE000B9CF8FE7089581E00895803F31F40E94E3
:100EF0001607819580933A020895813F19F40E9464
:100F00001607F8CF823F31F40E941607819580932F
:100F100039020895833F19F40E941607F8CF893FDC
:100F200029F40E94DD0680933B0208958A3F21F454
:100F30000E94DD068195F7CF8B3F31F40E94DD06DC
:100F4000819580933C0208958C3F19F40E94DD0640
:100F5000F8CF843F31F48091380281608093380269
:100F60000895853F21F4809138028260F7CF863F53
:100F700021F4809138028460F1CF873F21F4809181
:100F800038028860EBCF883F21F48091380280617D
:100F9000E5CF8D3F31F4809132028160809332023F
:100FA00008958E3F21F4809132028260F7CF8F3F07
:100FB000B9F7809132028460F1CF80E00895F8940F
:100FC000E82FE295EF70F0E031A1282F2F7081E03B
:100FD00090E001C0880F2A95EAF7982F9095932307
:100FE00091A392A1892B82A37894089590910D02E8
:100FF00092FF06C0282F28712830F9F4877F84607B
:1010000093FF06C0282F28712831F1F4877E846170
:1010100020910E0220FF06C0382F38713830D9F4E5
:10102000877F816021FF06C0282F28712831D1F4E5
:10103000877E816194FD877E0895282F2471243056
:10104000F9F68B7F8860DCCF282F2471243101F7DB
:101050008B7E8861DDCF382F3171313019F78E7F6B
:101060008860E0CF282F2171213121F78E7E8861A1
:10107000E1CFCF93DF93EC0182389105A9F1D8F548
:101080008133910509F496C048F58932910509F438
:101090008AC08A9709F495C0C11521E5D20708F0E6
:1010A000BCC0C11530E5D30708F014C1C83ED10556
:1010B00008F09CC0C03ED10560F5C83AD10508F0E3
:1010C00087C0C53AD10508F0FDC0C130D10509F18E
:1010D0002097F9F0C430D105E0F440C08533910584
:1010E00009F45AC0C997C1F680910D02837089F046
:1010F000C0EED0E00EC0833E910599F170F4803EC1
:10110000910501F1823E910539F680910D0282FD33
:1011100021C0CE01DF91CF910895863E910561F106
:10112000873E910571F1843E910509F0B5CF80911C
:101130000E0281FFEECF80910D02C7EED0E084FD5C
:101140000DC0E7CF80910D0280FD12C190910E027B
:1011500090FFDFCFC3EED0E084FFDBCFD0E0C0E074
:10116000D8CF80910D0282FD06C190910E0290FDB4
:10117000BFCF84FFCECFF2CF80910D0283FDDDCFB4
:10118000C8CF80910D0283FDF9C090910E0291FFAE
:10119000F0CFC4EED0E0BDCF80910D0285FFB9CF76
:1011A000C9E2D0E0B6CF80910D0285FFB2CFC5E392
:1011B000D0E0AFCF80910D0286FFABCFCAE2D0E086
:1011C000A8CF80910D0286FFA4CFC1E3D0E0A1CFCC
:1011D000CF3BD10518F6C85AD0E0CC0FDD1FCA5D51
:1011E000DE4F0990D881C02DD46493CFC11540E261
:1011F000D40758F4C11581E0D80708F08ACFC03F62
:10120000D10508F4ABCFD06584CFC11590E4D907E0
:1012100008F4A4CFDF70D06A7CCFC11525E5D207D2
:1012200000F5C11534E5D30708F08AC0C11543E5C0
:10123000D40708F071C0C11582E5D80708F467C06B
:10124000CE018370992721E030E002C0220F331FC6
:101250008A95E2F7C695C69580E2C89FE001112401
:1012600052C0C11599E5D907A8F4C11528E5D207E0
:1012700008F06BC0C11536E5D30708F06FCF8C2F8F
:101280000E94F607C82FD0E0DC2FCC27CC27DF71D7
:10129000D0623FCFC1154AE5D40708F45BC0CE0148
:1012A00090568115904208F059CF8D2F8F710E9472
:1012B000F60790E0982F882788279F719C012C2B98
:1012C000E901E6CFC55AD0E0CD5DDE4FC881D0E060
:1012D000D0641FCFCE01E4E096958795EA95E1F7BB
:1012E00083702C2F26952695237040E2249F900131
:1012F0001124382B8C2F8370C1E0D0E002C0CC0FBA
:10130000DD1F8A95E2F7C22BD32BDC6802CFDC2FDE
:10131000CC27C16FD06AFDCECE018370992721E022
:1013200030E002C0220F331F8A95E2F7C695C695BA
:1013300090E2C99FE0011124C22BD32BDA68E9CED9
:10134000DC2FCC27C46FD06AE4CEDC2FCC27C06F53
:10135000D06ADFCE8C2F8F700E94F60734E0D695CE
:10136000C7953A95E1F7CF709C2FEC01D069D1CEAB
:10137000C9E3D0E0CECEC2EED0E0CBCEC6EED0E018
:10138000C8CE8091FE01882331F01092FE011092A8
:10139000FD011092FC010895CF93C82F80910E0299
:1013A00082FD0CC08091FE018C1741F00E947705F0
:1013B0009093FD018093FC01C093FE01CF910895AD
:1013C000809590917104982390937104089580956D
:1013D0009091A30298239093A30208959091A30261
:1013E000892B8093A30208951092F3011092F201C9
:1013F0001092F10108958091760390917703892BE3
:1014000089F00E9477052091FC013091FD01AC012B
:10141000421B530B81E020917603309177034217F2
:10142000530708F480E0817008958091F0018111E4
:101430001092F0010895ECE7F1E09191891303C057
:10144000DF0111971C9291E0E238F907B1F7089596
:10145000ACE7B1E0EFEF90E02D91821751F0EF3F54
:1014600019F4211101C0E92F9F5F9630A9F7EF3FD2
:1014700009F408950E2E000CFF0BE658FE4F8283F0
:1014800008952091EF019091AE01291302C080E0F0
:10149000089530E0F90153E0EE0FFF1F5A95E1F790
:1014A000E155FE4F5181561306C05081581303C0B9
:1014B0005281541304C02F5F3F4F2770E6CF81E065
:1014C00008958091EF019091AE01981301C00895A5
:1014D0008F5F8770FACF9E3F49F1E82F2FE0929FF0
:1014E000E00D11249E2F9770E695E695E69583E032
:1014F000E89FF0011124E857FE4F50E040E080E003
:10150000219130E0092E02C0369527950A94E2F722
:1015100021703327042E01C0220F0A94EAF7822B90
:101520004F5F5F4F4330510559F7089580E00895AC
:101530009E3F69F1E82F2FE0929FE00D11248E2F3E
:10154000877041E001C0440F8A95EAF7E695E69579
:10155000E69583E0E89FF0011124E857FE4F30E064
:1015600020E070E05191DF011197CB01022E02C003
:10157000969587950A94E2F7817081958527842353
:1015800085278C932F5F3F4F2330310559F70895FE
:1015900092959F70963091F058F4925F9F709230C0
:1015A00058F4803F19F030F4883E30F481E008951B
:1015B0009A5FF4CF843FD1F380E00895883EB0F382
:1015C000813FD1F7F3CF9C013A9521153F4150F56A
:1015D000FC01EE27F170BC0166277270AC01442754
:1015E00054709C012227387094FF0EC080E1EF2BCD
:1015F00009F480E0672B09F08062452B09F08064D4
:10160000232B89F08068089581E0EF2B09F480E0B6
:10161000672B09F08260452B09F08460232B19F0B9
:101620008860089580E0089580935604709358046C
:101630006093570480916F048430F9F48093E9003B
:101640008FEF9091E800815095FD06C095ED9A9539
:10165000F1F700008111F5CF8091E80085FF0DC002
:1016600050E040E063E070E086E594E00E94020410
:101670008091E8008E778093E8000895BC0184E0B3
:101680000C94140BBC0183E00C94140B9C0184E0BB
:101690008093E9009FEF8091E800915085FD06C09E
:1016A00085ED8A95F1F700009111F5CF8091E80062
:1016B00085FF0CC050E040E066E070E0C9010E9488
:1016C00002048091E8008E778093E8000895CF931C
:1016D000DF93EC0181E08093E9008FEF9091E800C7
:1016E000815095FD06C095ED9A95F1F700008111A6
:1016F000F5CF8091E80085FF14C050E040E068E03D
:1017000070E0CE010E9402048091E8008E77809301
:10171000E80088E0FE01ACE5B4E001900D928A9506
:10172000E1F7DF91CF91089581E08093E00080E2BE
:101730008093D8001092C9008FE19EE40197F1F7E1
:1017400000C0000087E090EBDC018093720490936E
:101750007304A0937404B093750488E19CE00FB601
:10176000F894A895809360000FBE90936000FFCF1F
:10177000019708F40895EFE9FFE03197F1F700C011
:101780000000F6CF0F931F93CF93DF9304E713E08E
:10179000CFE7D2E0CE010E94D531F80181938F01CD
:1017A0002196C13AF2E0DF07A9F7C5EBD5E0FE01CB
:1017B00085919491009711F0FC0109952896F6E027
:1017C000CD34DF07A1F7DF91CF911F910F910895DD
:1017D0000F931F93CF93DF93843030F5653020F55E
:1017E0004F3010F5C42FD0E0CC0FDD1F2EE1629FEB
:1017F000C00DD11D112436E9839FC00DD11D1124C8
:10180000CE0187960E94D531082F10E0102F0027B7
:10181000CE0188960E94D5319801282BC901DF910D
:10182000CF911F910F91089590E080E0F8CF462F5F
:101830002091A1023091A202232B91F47E3F39F432
:101840006E3F71F480919F029091A00208958430C0
:1018500038F4753028F46F3018F4672F0C94E80BC7
:1018600090E080E00895CF92DF92FF920F931F9354
:10187000CF93DF936C01009170048091FF01082BDE
:10188000C7E0D0E010E0FC2EC8010C2E02C09595F8
:1018900087950A94E2F780FD0CC02197A0F7F12C00
:1018A0008F2DDF91CF911F910F91FF90DF90CF90FF
:1018B0000895B6018C2F0E94170C0E9439080197D9
:1018C00061F3EECFCF93DF93EC010E94330CBE01A6
:1018D0000E94170CDF91CF910C943908FC0186818E
:1018E0009781009721F00E9439080C94C80A8081E2
:1018F00091810E94620CF9CF1F93CF93DF9300D0A8
:1019000000D00F92CDB7DEB749835A8389819A817F
:101910006623B9F02223A9F00E94330C182F682FF8
:1019200089819A810E94980A69817A81812F0F901A
:101930000F900F900F900F90DF91CF911F910C940B
:10194000170C0E946B0A182FEFCFFC01262F8681FF
:101950009781009739F4408151816281738184813C
:101960000C947C0C089583E290E00E94D531893478
:1019700089F484E290E00E94D5318C3659F485E2F6
:1019800090E00E94D53191E0873B09F090E0892FEB
:101990008170089580E0FCCFCF9384E090E00E94B6
:1019A000D531C82F82E290E00E94D531982F8C2F3C
:1019B000CF9108950F931F93CF93DF9304E713E024
:1019C000CFE7D2E0CE010E94D531F80161918F01BD
:1019D000681719F0CE010E94E3312196C13AF2E076
:1019E000DF0781F7DF91CF911F910F910895E4E711
:1019F000F3E0128E138E8FEA90E09183808385E06E
:101A0000848F88E893E1938382838AE090E09583D2
:101A1000848324E130E03783268348E050E0518717
:101A20004087938782872EE130E035872487978728
:101A3000868720E530E0318B208B538B428B48E248
:101A400050E0558B448B42E350E0578B468B48EC7B
:101A500050E0518F408F158E978F868F31A320A332
:101A60000E94DA0C0C94C20BCF93DF93C1E4D3E055
:101A700060E0CE010E94E3312196C11584E0D807D1
:101A8000B9F7DF91CF9108950F931F93CF93DF9311
:101A90008901843048F5653038F54F3028F5211537
:101AA0003C4531F42091700330917103232BE1F018
:101AB000C42FD0E0CC0FDD1F9EE1699FC00DD11D6A
:101AC000112496E9899FC00DD11D1124612FCE01EB
:101AD00087960E94E331602FCE018896DF91CF91E7
:101AE0001F910F910C94E331DF91CF911F910F91D2
:101AF0000895CF93C82F6FEF811169E483E290E0DE
:101B00000E94E3316FEFC1116CE684E290E00E9425
:101B1000E3316FEFC11167EB85E290E0CF910C9458
:101B2000E3317F928F929F92AF92BF92CF92DF92DA
:101B3000EF92FF920F931F93CF93DF93CDB7DEB752
:101B400064970FB6F894DEBF0FBECDBFA0907003B0
:101B5000B090710381E090E09093710380937003E3
:101B600087E5C82E83E0D82E00E0760110E015C08E
:101B7000F40125913491472D612F802F0E94440D4F
:101B800082E0880E911C7394EFE07E12F1CFFEE1AB
:101B9000EF0EF11C1F5F153019F04701712CE8CFD3
:101BA0000F5F86E9C80ED11C0430F9F60E94F70CCD
:101BB0001A8219821C821B821E821D8218861F8235
:101BC00088EC90E09A87898701EA12E04AE050E0C9
:101BD000B801CE0101960E940732065F1F4F013FF8
:101BE000E2E01E0799F77E01FBE0EF0EF11C8AE0B0
:101BF000F70111928A95E9F74AE050E0B801C70170
:101C00000E940732065F1F4F0134F3E01F07A1F760
:101C1000B0927103A092700364960FB6F894DEBF81
:101C20000FBECDBFDF91CF911F910F91FF90EF902D
:101C3000DF90CF90BF90AF909F908F907F9008954E
:101C400080E00E94790D60E086E290E00E94E3313E
:101C50000E94910D0E94340D81E00C94790D9B013E
:101C6000883070F49AE0899FB00111246F557D4F40
:101C70004AE050E0C9010E94C53190E080E008953B
:101C80008FEF9FEF08958F929F92AF92BF92CF9266
:101C9000DF92EF92FF920F931F93CF93DF93CDB715
:101CA000DEB72A970FB6F894DEBF0FBECDBF0BE9A3
:101CB00013E0F12CE12C8FE2C82E88E2D82E99E5B2
:101CC000A92E98E2B92E28E9822E27E2922EF80159
:101CD000D182C082B382A28295828482F58AE48A0C
:101CE000BE016F5F7F4F8E2D0E942F0E892B29F42E
:101CF00089859A85F801938B828BFFEFEF1AFF0A93
:101D00000A5E1F4F88E0E816F10409F72A960FB61D
:101D1000F894DEBF0FBECDBFDF91CF911F910F9121
:101D2000FF90EF90DF90CF90BF90AF909F908F90FB
:101D30000895CF92DF92EF92FF920F931F93CF936C
:101D4000DF93CDB7DEB72A970FB6F894DEBF0FBE8C
:101D5000CDBFEFE4F2E080E5DF011D928A95E9F75F
:101D6000ECE2F3E088E3DF011D928A95E9F78FE466
:101D7000C82E82E0D82E7F0101EF12E0F701D18258
:101D8000C0824AE050E0B801CE0101960E94C53100
:101D900088E0FE013196D60101900D928A95E1F717
:101DA00089859A85D70113969C938E931297BAE0F2
:101DB000CB0ED11CE7E0EE0EF11C065F1F4F013485
:101DC000F3E01F07D9F62A960FB6F894DEBF0FBED0
:101DD000CDBFDF91CF911F910F91FF90EF90DF90DA
:101DE000CF9008954F925F926F927F928F929F92C1
:101DF000AF92BF92CF92DF92EF92FF920F931F9319
:101E0000CF93DF93CDB7DEB72A970FB6F894DEBF36
:101E10000FBECDBF8E010F5F1F4F8AE0F8011192F8
:101E20008A95E9F794E5E92E91E0F92E680129E514
:101E3000422E21E0522E66246394712C48E6842EB3
:101E400041E0942EF70181917F018F3F09F445C055
:101E5000F894E82FE295EF70F0E021A18F70A301D4
:101E600002C0440F551F8A95E2F7CA01922F982BA2
:101E700091A392A18095892382A3789400C0E9E57B
:101E8000F1E021E030E0B12CA12C41914F3F09F469
:101E90007EC0A42FA295AF70B0E090968C9190E098
:101EA0004F7002C0959587954A95E2F780FD6FC007
:101EB000C901A82AB92A220F331F8E169F0629F7B7
:101EC000F701319780818F3F11F00E94DF0750EAC0
:101ED0005A95F1F7F601B182A082F2E0CF0ED11C43
:101EE0004E145F0409F0AECF4AE050E0B80183E041
:101EF00092E00E94A831FF24F394009709F4F12C9A
:101F0000892B09F447C08AE0F801A3E0B2E0019010
:101F10000D928A95E1F781E0809302020E94770595
:101F2000909301028093000280910002909101023F
:101F30000E946805059790F1809103029091040238
:101F400090932702809326028091050290910602C9
:101F500090932902809328028091070290910802B1
:101F600090932B0280932A028091090290910A0299
:101F700090932D0280932C0280910B0290910C0281
:101F800090932F0280932E021092020207C090E0DD
:101F900080E08FCF809102028111C6CF8F2D2A96CB
:101FA0000FB6F894DEBF0FBECDBFDF91CF911F916A
:101FB0000F91FF90EF90DF90CF90BF90AF909F90E8
:101FC0008F907F906F905F904F9008958091A302C3
:101FD00090917104892B80937A018091FE0188236E
:101FE00009F18091760390917703892B29F00E9463
:101FF000FB0981110E94C10980917A019091FE0133
:10200000892B80937A0120E08CE791E0FC013191EB
:10201000CF0131112F5FF1E082389F07B9F721110D
:102020000E94C10948E050E064EF71E08AE791E066
:102030000E94A831892BA9F088E0EAE7F1E0A4EF3B
:10204000B1E001900D928A95E1F7E0914D04F09195
:102050004E04309731F00280F381E02D8AE791E061
:1020600009940895EF92FF920F931F93CF93DF93FC
:10207000EC018A85811134C0EB80FC8087E5F81A79
:1020800026E12E9DC0012F9D900D1124DC01A55647
:10209000BC4F1496ED91FC911597309731F0549602
:1020A0006D917C918F559C4F099586E18E9D8001A5
:1020B0008F9D100D112405561C4FF80187810E9439
:1020C000E709F80180850E94E0090E94E60F188266
:1020D00019861B861E821D8210929A031092990304
:1020E000DF91CF911F910F91FF90EF900895CF93C3
:1020F000DF93EC018989811118C081E0898B8F8180
:102100000E94EE09809171049885892B8093710457
:102110000E94E60FEA81FB81309739F06C897D8956
:10212000CE010696DF91CF910994DF91CF9108956A
:1021300080911801877F8093180182E00E94E00956
:102140008091180184FF06C08F7E8093180182E081
:102150000E94EE098091180185FF06C08F7D809353
:10216000180180E20E94EE090C94E60F90E080E0F6
:102170000E94990590E080E00E948305109271040E
:102180000E94E60F86E0E7E3F2E0DF011D928A9508
:10219000E9F71092310210923002109232020C9440
:1021A0003306809370040C94B61080917004982FBD
:1021B0009670963019F488600C94D110877FFCCF0C
:1021C00021E030E001C0220F8A95EAF72095809146
:1021D000700482230C94D1109091F301809589238F
:1021E0008093F301282F277091F4282F082E000CDC
:1021F000330B9217130659F090910E0292FD07C00F
:102200008595859585950E94E0100C94F4090895B4
:10221000CF93C0910E02C2FB992790F9981799F0BD
:1022200080FBC2F9C0930E0260910D0284E090E041
:102230000E94E3316C2F82E290E00E94E33182E061
:10224000CF910C94EC10CF91089521E030E001C0C3
:10225000220F8A95EAF780917004822B0C94D1109A
:1022600090910E0292FD10C098E0899F9001112478
:10227000622B6093F3010E9425110E9477059093D1
:10228000F2018093F10108950C9425118093FF01D0
:102290000C94B6101092A302ECE7F1E086E0DF01A7
:1022A0001D928A95E9F70C94B6101F93CF93DF9394
:1022B000CDB7DEB7AA970FB6F894DEBF0FBECDBF7D
:1022C00087E694E02091F100DC012D93CD01B4E08C
:1022D0008F369B07B9F780916804833009F472C088
:1022E000B8F4813009F449C0823009F4B3C0809158
:1022F000E80083FF96C280916704909168049A3049
:1023000008F08FC2E92FF0E0EF5DFD4C0C949231A4
:102310008A3009F48EC08B3009F471C0893039F7E6
:1023200080916704813219F780916B0490916C045D
:10233000009711F00297D9F68091E800877F80938B
:10234000E8008091E80082FF38C09091F30080910E
:10235000F200029731F48091F100813011F0863063
:1023600021F48091F10080935B048091E8008B77E9
:102370008093E8000E945404BACF80916704813AA8
:1023800009F0B5CF8091E800877F8093E8008091C5
:102390006B0490916C04892B61F468E08CE594E007
:1023A00070E00E9406058091E8008B778093E8003A
:1023B0009ECF60E090E080E0F3CF80916F048111C8
:1023C000C0CF95CF80916704813A09F090CF80917A
:1023D0006B0490916C04892B09F089CF8091E800FF
:1023E000877F8093E8008091E80080FFFCCF809198
:1023F0001A018093F1008091E8008E77B9CF809127
:102400006704813209F073CF80916B0490916C0462
:10241000892B09F06CCF8091E800877F8093E800DA
:102420000E9454048091690480931A010E944A1109
:102430005ECF80916704813209F059CF8091E80026
:10244000877F8093E8000E94540480916A048093FF
:102450005A044DCF80916704813A09F048CF8091AA
:10246000E800877F8093E8008091E80080FFFCCF40
:1024700080915A04BECF803899F0823809F0D1C1DA
:1024800080916B048F70873008F0CBC18093E90096
:102490008091EB0085FB882780F91092E90006C047
:1024A0008091640490916504911182609091E8009C
:1024B000977F9093E8008093F1001092F100809153
:1024C000E8008E77AAC1882309F498C1823009F008
:1024D000A8C18091690481119BC180916B048F70A8
:1024E0002FEF280F263008F09CC18093E90020913F
:1024F000EB0020FF8DC1933031F48091EB008062BE
:102500008093EB0085C19091EB0090619093EB007C
:1025100021E030E001C0220F8A95EAF72093EA001B
:102520001092EA008091EB008860EACF811179C1B6
:10253000109169041F778091E3008078812B80934C
:10254000E3008091E800877F8093E8000E945404B4
:102550008091E80080FFFCCF8091E3008068809349
:10256000E30082E0111183E080936F045AC1805828
:10257000823008F056C12091690430916A042C3DE4
:10258000E3E03E07A1F583E08A838AE289834FB7BF
:10259000F894DE01139620E03EE051E2E32FF0E0F4
:1025A00050935700E49120FF03C0E295EF703F5F26
:1025B000EF708E2F90E0EA30C0F0C7968D939D9318
:1025C0002F5F243159F74FBF8091E800877F8093B8
:1025D000E8006AE270E0CE0101960E940605809153
:1025E000E8008B778093E8001CC1C096E7CF80910C
:1025F0006B0490916C04432F55274330510509F427
:102600004AC078F54130510509F485C08BE590E06A
:10261000E7E4F6E04230510509F003C12091E800FB
:10262000277F2093E80020916D0430916E0482177B
:10263000930708F49C0140E02115310509F070C0B2
:1026400041116EC08091E80082FDC9CF80916F0476
:10265000882329F2853019F28091E80083FFF2CFB8
:10266000BECF4132510509F447C04232510509F04D
:10267000D8C08330910508F0D4C0FC01EE0FFF1FD5
:10268000E559FE4F0190F081E02D88599E4FDC0105
:102690008C9190E01DC0332721303105E9F02115E0
:1026A000310579F022303105F9F02330310509F098
:1026B000B8C0E4EBF6E0E4918E2F90E0E4EBF6E0B6
:1026C00007C0ECEEF6E0E4918E2F90E0ECEEF6E041
:1026D000009709F4A6C0A2CFEEEDF6E0E4918E2FAC
:1026E00090E0EEEDF6E0F4CFE2EDF6E0E4918E2F2F
:1026F00090E0E2EDF6E0ECCF8330910508F091C078
:10270000880F991FFC01EF58FE4F0190F081E02DDA
:1027100089E090E083CF82E190E0E2EAF6E07ECFCC
:1027200080916F04882309F45ACF853009F457CF7C
:102730008091E80083FD53CF8091E80082FD82CF35
:102740008091E80080FF78CF9091F3008091F200B3
:102750002115310519F08830910550F041E00897B6
:1027600009F040E08091E8008E778093E80064CF24
:1027700044914093F1003196215031090196E8CF00
:10278000803809F04EC08091E800877F8093E80090
:10279000809166048093F10092CE811142C0109125
:1027A00069041230F0F58091E800877F8093E8009B
:1027B000109366040E945404112311F084E005C0B4
:1027C0008091E30087FDFACF81E080936F0442E0BF
:1027D00061EC81E00E94730442E261EC84E00E94BB
:1027E000730442E261EC82E00E94730442E260EC16
:1027F00083E00E94730480916F0413C08091690488
:10280000813079F481E0933009F080E080936504B1
:102810001092E9008091E800877F8093E8000E9491
:1028200054048091E80083FF0AC08091E800877F0C
:102830008093E8008091EB0080628093EB00AA9681
:102840000FB6F894DEBF0FBECDBFDF91CF911F91C1
:102850000895882321F00E94E0090C94E60F089562
:10286000882339F090917104982B909371040C9403
:10287000E60F0895882321F00E94E7090C94E60FE3
:102880000895882321F00E94EE090C94E60F089524
:10289000882309F452C0823871F40E94AF0581FF89
:1028A0004CC089E30E94280A0E94E60F89E30E9437
:1028B0001B0A0C94E60F833859F40E94AF0580FF81
:1028C0003CC083E50E94280A0E94E60F83E5EFCF13
:1028D000843859F40E94AF0582FF2FC087E40E941C
:1028E000280A0E94E60F87E4E2CF9CEF980F913A06
:1028F000F0F290E2980F983050F4877091E001C0A8
:10290000990F8A95EAF7892F0E94E709D2CF9BE5B4
:10291000980F933020F490E080E00C94990598E5AE
:10292000980F973120F490E080E00C948305803F6D
:1029300020F00E945A060C9433060895CF93DF933B
:10294000EC010E944814CE010E94E30A9E01205E21
:1029500031092830310510F0CD2B21F4DF91CF91D2
:102960000C943A14DF91CF910C94291469EE7EEF08
:1029700090E080E00E94013260E082E090E00E94FE
:10298000E33160E083E090E00E94E3311092FF01C8
:1029900060E084E090E00E94E33160E082E290E059
:1029A0000E94E33160E085E090E00E94E33160E066
:1029B00086E090E00E94E3316FEF87E090E00E94B4
:1029C000E33140E050E0BA0188E090E00E94F53148
:1029D00060E08DE090E00E94E33140E050E0BA0119
:1029E00088E190E00E94F53160E087E190E00E948C
:1029F000E33140E050E0BA018CE190E00E94F53113
:102A000070E060E080E290E00E94013240E050E03F
:102A1000BA0188E190E00E94F53180E00E94790DD2
:102A20000E94200E40E050E0BA018FE090E00E944A
:102A3000F53140E050E0BA0183E190E00C94F531CB
:102A40008B3109F476C040F58B3071F078F4863024
:102A500009F458C020F4853059F180E0089587309A
:102A600009F459C08830C9F781E00895803109F42C
:102A70006EC068F48E3089F790917303892F8B7F35
:102A800092FF84608093730382FD5DC0EDCF863139
:102A900059F3893149F3E1CF8A3289F1E0F4873281
:102AA00041F120F48E31C8F28D515DC08932A9F612
:102AB0008091700390917103892BB1F20E944A11A9
:102AC0002FEF84E39CE0215080409040E1F700C06C
:102AD00000000E94940B833448F48A3308F042C00B
:102AE000853339F0883309F4BFCFB7CF833409F089
:102AF000B4CF81E00E9446110E944A11B5CF0E94D6
:102B0000B614B2CF80917303807F8093730381E00A
:102B100080937203089590917303892F8E7F90FFA5
:102B200081608093730380FD9FCF817F80937303C7
:102B30009BCF90917303892F8D7F91FF826080934B
:102B4000730381FF91CF809173038160EFCF9091E8
:102B50007303892F877F93FF88608093730383FDBE
:102B6000F2CF82CF895391E001C0990F8A95EAF79D
:102B7000892FC0CFCF93C82F882309F492C0823801
:102B8000C1F40E94AF0581FD8CC089E30E94280A30
:102B90000E94E60F2FEF81EE94E02150804090409C
:102BA000E1F700C0000089E30E941B0ACF910C945A
:102BB000E60F8338A1F40E94AF0580FD72C083E563
:102BC0000E94280A0E94E60F2FEF81EE94E0215028
:102BD00080409040E1F700C0000083E5E5CF8438F5
:102BE000A1F40E94AF0582FD5CC087E40E94280A20
:102BF0000E94E60F2FEF81EE94E02150804090403C
:102C0000E1F700C0000087E4CFCF8CEF8C0F813A52
:102C100008F0BDC0809172038130F1F0882391F0FB
:102C20008230A9F110927203ECE7F1E08191C817AC
:102C300009F4DDC021E0E238F207C1F78C2F0E94D1
:102C4000280AB4CF8091A302823271F78C2F0E94A0
:102C50002015811126C0E8CF8091A3028232B1F302
:102C6000C43171F038F4CB3049F0C03161F080E00C
:102C70008170EFCFC93221F0C833C9F781E0F8CFB6
:102C800010927203F4CF82E080937203F7CFC932BF
:102C900009F43FC0E8F4C431E1F128F4C73009F485
:102CA0005BC0CF91089582EE8C0F8A30D0F7CD5162
:102CB000C0938701C33009F446C0B0F5C13009F4B0
:102CC0003FC084E191E0C230B1F110928701E9CFB9
:102CD000C03509F454C0B8F48AE0CF3411F7E0915C
:102CE0008501F09186013097E1F22081082E000CD9
:102CF000990B820F911D8F3F910509F00CF443C091
:102D00008FEF8083CECFC135E1F181E0C23539F359
:102D1000C8CF80918701882321F2109287011092F9
:102D2000860110928501BDCFC53099F078F08EE014
:102D300091E0C63051F69093860180938501B1CF22
:102D400085E191E0F8CF83E191E0F5CF82E191E078
:102D5000F2CF8FE091E0EFCF81E08093150184E125
:102D6000809314018AE0809313018EE18093120115
:102D700088E080930F0188E280930E0192CF86EF66
:102D8000AECF8FEFACCF97FFBCCF10828ACF80E25F
:102D90008C0F883048F4C77081E001C0880FCA9555
:102DA000EAF70E94EE0902CFEBE5EC0FE33040F4C6
:102DB000F0E0ED5DFE4F808190E0CF910C9499059D
:102DC000E8E5EC0FE73150F4F0E0EE0FFF1FEA5DAD
:102DD000FE4F80819181CF910C948305C03F08F410
:102DE00060CF8C2F0E947507CF910C9433068C2FE7
:102DF0000E941B0A0E94E60F21CF1F93CF93DF93FF
:102E0000182FC0919403D0919503893321F0C0917C
:102E10009203D0919303812F0E94BA15209731F429
:102E2000812FDF91CF911F910C9448148FE99FE07F
:102E30000197F1F700C000002197F0CF0F931F9387
:102E4000CF93DF93C42FD22FFC0182818823A1F07E
:102E5000409398030E94770590939703809396037D
:102E6000C77081E001C0880FCA95EAF7DF91CF9162
:102E70001F910F910C94411410919803141339C0B1
:102E800080919603909197030E94680520918C038E
:102E900030918D038217930760F5C0E2CD0F1D17A7
:102EA000B9F080E2810F883040F4177081E001C0F2
:102EB000880F1A95EAF70E943A14C83048F481E066
:102EC0009D2F977001C0880F9A95EAF70E944114D0
:102ED000802F0E94FD16C83098F4D77081E001C0A1
:102EE000880FDA95EAF7DF91CF911F910F910C943B
:102EF0003A14C77081E001C0880FCA95EAF7F3CF92
:102F0000DF91CF911F910F910895AF92BF92CF9211
:102F1000DF92EF92FF920F931F93CF93DF93EC0119
:102F20008AE0A82E2881222309F48CC02130C9F51B
:102F300099818A81913021F422960E94FD1605C064
:102F4000923029F422960E94BA152196EBCF933045
:102F500021F422960E944814F8CF943011F0219663
:102F6000F4CF229630E020E0AE014F5F5F4F8053F8
:102F7000990B8A30910550F02150310930F38FE9D7
:102F80009FE00197F1F700C00000F6CFA29EB001CC
:102F9000A39E700D11249C01260F371F8981EA0121
:102FA000E3CFE22FF0E0E154FE4FB490822F8695FC
:102FB0008695869590E0FC01E155FE4FE4902770E0
:102FC000F12C022E02C0F594E7940A94E2F731E066
:102FD000E322FF24FC01E156FE4FC490D12C022EC7
:102FE00002C0D594C7940A94E2F731E0C322DD24ED
:102FF000FC01E157FE4F049110E002C015950795C2
:103000002A95E2F701701127E114F10419F081EE1D
:103010000E94BA15C114D10419F086EE0E94BA15A7
:103020008B2D0E94FD16CD2819F086EE0E944814C3
:10303000EF2819F081EE0E944814012B09F485CF86
:103040008CE27BCFDF91CF911F910F91FF90EF909A
:10305000DF90CF90BF90AF900895CF93DF93EC01B6
:103060000E94E30A9E01205E31092830310510F0EC
:10307000209739F40E9441148C2FDF91CF910C944A
:10308000BA150E943014F8CF662329F020917104FC
:103090002260209371049C013056211540E23407D0
:1030A00020F0305E2115304108F499270C942D183A
:1030B000DF92EF92FF920F931F93CF93DF937C01E8
:1030C0008B01D42E8091180182FF8CC0C091C60262
:1030D000D091C702CE15DF0521F0E114F10409F00B
:1030E00081C0809118018B7F8093180181FD73C08E
:1030F0008091C4029091C502A801481B590B81E040
:1031000020911601309117014217530708F480E00F
:103110008170F82E80911801F0FA81F980931801DE
:10312000FE0183E0F695E7958A95E1F7EE71FF27BA
:10313000EC55FD4F20813181AE014F70552781E064
:1031400090E002C0880F991F4A95E2F7FF2009F42A
:1031500044C0822B932B918380838091A30281FFB3
:1031600008C08091180180618093180182E00E945C
:10317000E7098091A30285FF08C080911801806251
:103180008093180180E20E94E7096F2DCE010E9412
:103190004418DD2031F080918F0385FF02C086FF47
:1031A0003BC080919203909193030E94B80B809151
:1031B000C6029091C7029C013056211540E23407A7
:1031C00020F0305E2115304108F499270E949E14AA
:1031D0000E9498101DC081E09BCF8095909582231E
:1031E0009323B9CFC701992797013056211540E2A3
:1031F000340728F0305E2115304108F0C7010E94E5
:103200009E148091C6029091C7028E159F0501F30E
:103210001093C5020093C402DF91CF911F910F91CB
:10322000FF90EF90DF9008958F929F92AF92BF92A0
:10323000CF92DF92EF92FF920F931F93CF93DF9382
:1032400000D000D0CDB7DEB77C01DC0113964D91E4
:103250005C91149711966C9111978C910E94BB050B
:10326000811179C061E0C7010E94A50C8C01F701B2
:103270008281811111C0D70112968C91811149C0B0
:103280000031FFE51F0709F4EEC001312FE51207F9
:1032900009F017C782E0E8C080910C0190910D0100
:1032A000019649F36BE9C62E63E0D62EB12CA12C12
:1032B0009924939480910C0190910D018A159B059E
:1032C000D4F2F60186818823E9F08185928508177A
:1032D000190739F48091990390919A0308171907F7
:1032E00089F0D6011F969C921F971C961C930E93F3
:1032F0001B97C6010E947710C60106960E943210E5
:1033000010927104BFEFAB1ABB0AE6E1CE0ED11CDE
:10331000D1CF980122513F452031310508F0C7C671
:103320008FEF93E00E94D5315EEED52ED00E01E4F2
:1033300013E0882369F18091F301877061F0D70170
:1033400012968C91882339F080910E0282FD03C081
:1033500082E00E94EC100F900F900F900F90DF9181
:10336000CF911F910F91FF90EF90DF90CF90BF9082
:10337000AF909F908F9008950115F4E01F07D9F248
:10338000C8010E94D531811101C0DA940F5F1F4F2F
:10339000D110F2CF19821A821B821C82CC24CA94CB
:1033A00048012FEF821A920AC8010E94D531898301
:1033B0001A82882309F4BFCF813009F048C0580130
:1033C00032E0A30EB11CC4010E94D531982E8A832D
:1033D000882309F4B0CFC5010E94D531D82E8FEFD4
:1033E000890D833068F4580143E0A40EB11CDB82E0
:1033F000DD2021F0CE0101960E9485178501D0CFF6
:1034000054E09512FBCF580184E0A80EB11CC8010E
:1034100003960E94D531DD2009F48DCF882309F46D
:103420008ACF8150990BC89E9001C99E300D1124FE
:10343000AD2DA150BB0BCD01820F931F0197F0F270
:10344000EFE9FFE03197F1F700C00000F7CFCE01C0
:1034500001960E9485175401D1CF81E00E94251169
:103460000E94D51068CF81E00E94E010F9CF82E081
:10347000F5CF4FEFC416D10411F008F02EC665E465
:1034800072E08C2D0E942F0E892B29F586E18C9DF0
:10349000F0018D9DF00D1124E556FC4F86818130A1
:1034A00009F062C08091450290914602892B99F003
:1034B0008091470290914802892B69F080914902DE
:1034C00090914A0220914B0230914C02822B932B17
:1034D000892B09F453C080910C0190910D018C153A
:1034E0009D0524F4D0920D01C0920C01F701828158
:1034F00096E19C9D50019D9DB00C1124950125568F
:103500003C4F6901D90150968C9350979281169641
:103510008C911697992309F43FC01A961C930E9329
:1035200019978F5F16968C930E947705F601968700
:1035300085878091FE018783809171049091A30219
:10354000892B80870190F081E02D309741F0D601E2
:1035500054966D917C91C5018F559C4F09951093A0
:103560009A0300939903B9C5823009F0B4CF8091D2
:10357000490290914A02892B09F4ADCF26E12C9D96
:10358000C0012D9D900D112485569C4FDC01509655
:103590001C920E9477109FCF882309F49EC5F901E1
:1035A0008189882309F499C5C5018F559C4F0E94D4
:1035B000321093C580911801816080931801BBC5BA
:1035C000809118018E7F809318010E949810B3C5D6
:1035D000809118018F7E013E110531F0053E1105E5
:1035E000C9F4809118018F7D809318018091180192
:1035F00080FFB0C5D70112968C910832110528F5CD
:103600000E31110508F074C00430110580F58111E8
:103610009DC5A0C5C8019056811540E2940720F0D1
:10362000905E8115904110F78091180182FF92C53C
:103630008091910381FD8EC529E132E040E0B60121
:1036400090E080E00E94581885C50933110558F4B0
:103650000D32110518F40B321105C9F690918F0344
:1036600092FDD5CF08C004361105C1F3D0CF90919B
:103670008F0394FDCCCF882309F4A1C09091A302BD
:103680008091FE01282F292B322F3D7FB1F110921E
:10369000C7021092C60230918F0331FD2EC0F8018F
:1036A00043E0F695E7954A95E1F7EE71FF27EC5573
:1036B000FD4F98012F70332781E090E002C0880F02
:1036C000991F2A95E2F78095909520813181822378
:1036D00093239183808360E0C8010E944418809105
:1036E000FE018D7F0E94CC0982E00E94EC1023CE67
:1036F00090918F0393FD8BCFBECF38E0F701A9E106
:10370000B2E001900D923A95E1F710921B021092EF
:103710001D0210921C02A090C602B090C7020A15AA
:103720001B05B1F530918F0335FF32C04091180170
:1037300041FB992490F841FF02C036FF29C0409117
:10374000C4025091C502B601641B750B40918C03F5
:1037500050918D0364177507D8F491FF08C08091CC
:10376000180180618093180182E00E94E70980912E
:10377000A30285FF08C08091180180628093180120
:1037800080E20E94E709692DC5010E944418D3CD4B
:103790009091180121FB91F9909318018D7F0E945F
:1037A000CC091093C7020093C602D092C502C09202
:1037B000C4028091180184608093180195CF97010D
:1037C00040E0B601C8010E945818B5CD053F4CE550
:1037D000140709F469C008F461C0063F8CE51807B6
:1037E00009F468C0D70112963C91332309F4D1C47F
:1037F000109298030330BDE51B0708F067C00A3F2D
:10380000ECE51E0730F4C80182509C45449708F04F
:1038100067C00E94CC0C90930E0280930D02013180
:103820003CE5130709F46CC108F0E9C009305CE518
:10383000150709F453C108F0B6C005309CE5190717
:1038400009F444C108F09CC00330BCE51B0709F42F
:1038500033C108F037C180910D02816002301C45F0
:1038600009F42DC160910D0210910E0284E090E0E8
:103870000E94E331612F82E290E00E94E3310E94D6
:103880004A1159CD07E225EE45EE68ED7CE57DC491
:1038900006E221EE40EE63EF7CE577C407E225EE19
:1038A00044EE64EF7CE571C406E221EE42EE65EF82
:1038B0007CE56BC407E225EE46EE66EF7CE565C469
:1038C00008E221E045EE69ED7CE55FC40136FDE5E7
:1038D0001F0709F49ECF053A2DE5120709F499CF89
:1038E00006315CE5150709F458C40A358DE518075B
:1038F00009F45CC108F038C10115ACE51A0709F4F8
:1039000045C10E3D1C4509F44EC1F70186819781E2
:10391000009709F44FC10E943908182F092FF701A9
:10392000D280C580C2943FE0C3228091F3018770AA
:10393000C1F0AD2CDD20B1F0892F807F803421F0E3
:1039400080E2810F883068F080910E0282FD09C00C
:1039500082E00E94EC108091F3018770AA24A39466
:103960008111A12C902E92942FE09222FBE0F91568
:1039700008F4ADC1E92DF0E0E55DFD4C0C94923109
:1039800080910D02806207302CE5120709F497C080
:1039900080910D02806108301C4508F490C0809130
:1039A0000D0280648CC080910D028B7F0D304CE540
:1039B000140709F484C080F40B308CE5180709F46F
:1039C00093C080910D028C600C301C4508F477C0C8
:1039D00080910D028D7F73C080910D028F7E0F301C
:1039E000ACE51A0709F46BC080910D02877F0031A6
:1039F0001C4508F464C080910D028F7D60C00D3FAE
:103A0000ECE51E0709F478C050F505312CE51207E6
:103A100009F480C098F480910D02837F03314CE556
:103A2000140709F44CC008F46FC00E944A11909129
:103A30000D02892F97FB87F9805841C00B3F8CE519
:103A4000180709F447C008F053C080910E02816046
:103A50000A3F1C4509F006CF80930E0203CF0130C8
:103A6000BDE51B0709F462C0B8F480910E028C7F9B
:103A70000F3FFCE51F0781F380910E028360011563
:103A80001D4550F380910E02982F909591708E7F76
:103A9000892B90FB81F9E0CF01363DE5130709F44E
:103AA0004BC0053A4DE5140709F44DC002301D45E1
:103AB00009F0D8CE60E03BC080910D028260809317
:103AC0000D02D0CE80910D028460F9CF80910D025D
:103AD0008860F5CF80910E028260BECF0E944A11AD
:103AE00080910D028068EBCF80910D028E7FE7CF31
:103AF00080910E028E7FB0CF80910E028D7FACCF71
:103B000080910D028F7BDBCF0E944A1180910D02C4
:103B10008F77D5CF80910D0282FB992790F921E014
:103B2000922790FB82F990FB83F9C9CF61E08EE088
:103B300090E00E94E33196CE90910D02892F8F7E06
:103B400094FF8061BCCF90910D02892F8E7F90FFF2
:103B50008160B5CF80918201811104C089E20E9409
:103B60001B0A46C385E3FBCF0B35EDE51E0701F1CC
:103B70000C351D4509F0C9CE80910E0282FB8827C5
:103B800080F991E089270E940811BFCE0E944A1156
:103B90002FEF34E34CE0215030404040E1F700C0CB
:103BA00000000E94940B0E94B614C5CB81E0EBCFBD
:103BB00080E0E9CF828100811181882369F0C8010A
:103BC0000E94330CD82E682FC8010E94980AB801B1
:103BD0008D2D0E94170C9FCEC8010E946B0AD82E13
:103BE000F6CF202F2F70B22E802F807F19F0B29445
:103BF00090EFB922DD20A9F0BB2059F080E2810FBF
:103C0000883010F0111107C08B2D0E94EE090E9420
:103C1000E60F812F5AC080917104B82AB0927104C6
:103C2000F6CF812F0E944814BB2009F450C080E2D7
:103C3000810F883010F0111104C08B2D0E94E7090C
:103C400003C08B2D0E94E0090E94E60F40C0302F78
:103C50003F70B32E802F807F803219F0B29480EFB6
:103C6000B822112321F1113009F4A4C0DD2009F498
:103C7000ADC0CC2009F47DC020E0D7014C91119655
:103C80005C91119712966C91129713967C911397F1
:103C900014968C910E947C0C8091910381FDB9CF88
:103CA000F701858180FFB5CF8F70858362C08091D9
:103CB0000E0282FF40C0DD20C1F1BB2029F08B2D18
:103CC0000E94EE090E94E60F80E00E94BA15A92D1D
:103CD000A850BB0B149710F40E94AF05812F902FB2
:103CE0000E94C80A8111C4C11092840110928301FC
:103CF000AA20B1F08091F30180FD12C0D701129685
:103D00001C928595859585950E942511C7010E9475
:103D100014198091F3018595859585950E94E01091
:103D200060E0C7010E94A50C16CB80E00E944814F9
:103D3000BB2069F282CFDD2001F1C11004C0809167
:103D4000FE018B2917C041E0C41206C08091FE011C
:103D50008B290E94CC09BBCF80919003823078F3ED
:103D6000C812EDCF0E94C1098091F001B812B09243
:103D7000F0018B2D0E944114AACFC11006C00E94F1
:103D8000C1098B2D0E943A14A2CF8091900351E07B
:103D9000C5120BC0823008F49ACF8091A3028B2108
:103DA00009F495CF0E94150AEACF823040F3C81279
:103DB000E6CF8DCFDD2029F085E08C1508F487CF84
:103DC000D8CF94E09C1508F482CFDBCFCC20C9F289
:103DD0008091940390919503193321F0809192037F
:103DE000909193030E94B80B812F0E9448146FCFCB
:103DF000802F86958695837069F0813009F067CFB2
:103E0000812F902F9370D11002C090E080E00E942B
:103E100083055DCF812F902F9370D11002C090E069
:103E200080E00E94990553CF812FDD2029F00E9468
:103E300075070E9433064BCF0E945A06FACF802F97
:103E4000837091F5D11043CF412F4295469547702D
:103E5000440F440F812F8F70042E01C0880F0A94E5
:103E6000EAF7212F207114FF07C02FE030E001C0D6
:103E7000220F4A95EAF72095302F36953695337004
:103E8000323069F050F44091FF01313029F0822B3B
:103E900084230E9446111BCF842B822BFACF282B20
:103EA0008091FF018227F5CF8695DD2011F0802FCC
:103EB0008170882309F40BCF412F429546954770B6
:103EC000440F440F812F8F70042E01C0880F0A9475
:103ED000EAF7212F207114FF07C02FE030E001C066
:103EE000220F4A95EAF72095302F36953695337094
:103EF000323069F050F440917004313029F0822B57
:103F000084230E94D110E3CE842B822BFACF282B5E
:103F1000809170048227F5CFF02FFF70BF2EDD2037
:103F200029F08F2F0E942511812F24CF812F0E94ED
:103F30003A148B2D0E94E010CACE123F89F160F432
:103F4000103FB9F0113F81F0DD2009F48CC0C110A1
:103F500060CE802F8F7128C0133F49F1143FA1F725
:103F600080910E0282FF2FC0802F8F71DD2011F310
:103F70001BC0DD2081F024E02C1508F4A8CE202FF2
:103F80002F7181E090E001C0880F2A95EAF79091A7
:103F900070048927B6CF35E03C1508F498CEEFCFF2
:103FA000802F8F71D110C6CF0E94251190CE80E056
:103FB000DD2009F4A6CF81E0902F9F7101C0880F0A
:103FC0009A95EAF79ECF809190038230A0F180917C
:103FD000F001DD20F1F00E94E7098091F301877084
:103FE000843041F40E94F409802F8F710E94E01008
:103FF000A12C6DCE80919003C816D0F7402F4F7141
:10400000B42E842F0E94251163E08B2D0E94301165
:10401000EFCF0E94EE0980919003C81640F00E94F5
:10402000F4090E94150A64E0802F8F71EFCF81E0C0
:104030000E94EC10DDCFDD2059F0502F5F71B52EBE
:10404000852F0E94251163E08B2D0E9430113FCEF9
:1040500081E00E94EC1081E08C1508F038CE82E0FF
:104060000E94EC1034CEC110B3CE802F8F7162CF7E
:10407000DD2019F0C11038CE3BCEC11035CE20E086
:10408000F701408151816281738184810E947C0C9F
:104090008091910383FF28CE8091830190918401C8
:1040A000029709F021CE812F0E94FD161DCE00310E
:1040B000BFE51B0709F4D1C90131EFE51E0709F47B
:1040C000D6C9680127E5D21A882309F4D2C93FEF7F
:1040D000C316D10409F008F4FEC980918F0380FF54
:1040E00039C00E9477056C01D70112968C91882304
:1040F00009F46ECA8091180182FF08C029E132E0FC
:1041000040E0B60190E080E00E9458180B31BCE519
:104110001B0709F44FCA0C31ECE51E0709F450CA1D
:1041200090911801892F8E7F90FF81600A31FCE504
:104130001F0709F448CAC8019056811520E292076A
:1041400028F0905E8115904108F050CA1092C70285
:104150001092C602033FBCE51B0709F499CB08F097
:1041600035CB083DFCE51F0709F48CCB093D2CE558
:10417000120709F4A5CB073D3CE5130709F032CB44
:1041800006E221EE41EE67ED7CE5C7010E941E17B5
:10419000D2C806311C4509F0B8CB8091A302982FF4
:1041A0009A7A20918E0320FF04C0482F447409F0AE
:1041B00090E021FF04C0482F417109F090E022FFF8
:1041C00004C0482F487809F090E023FF03C08272B2
:1041D00009F090E0332309F4BDCC81E0911101C0D6
:1041E00080E08093820189E2911185E30E94280A90
:1041F0000E94E60FA0C8CF92DF92EF92FF920F933A
:104200001F93CF93DF938091AB01807F31F4809136
:10421000A801C091EF0181110BC0DF91CF911F91D7
:104220000F91FF90EF90DF90CF9008952196C77087
:104230008091AE018C1789F3F090A601E090A70160
:10424000C090A901D090AA01A6016E2D8F2D0E94C9
:10425000BB05D0E08111EACF8E0183E0000F111F72
:104260008A95E1F7F801E155FE4F81818E11DECF8D
:1042700080818F11DBCF82818111D8CFE380F480E0
:10428000EC18FD0860E086EA91E00E94A50C8091A0
:104290008C0390918D03E816F90640F68091AB01EE
:1042A0008F7080618093AB01F801EC54FE4F8081E8
:1042B0008F708061808386EA91E00E941419DF91FB
:1042C000CF911F910F91FF90EF90DF90CF900C94C2
:1042D000610A3F924F925F926F927F928F929F926C
:1042E000AF92BF92CF92DF92EF92FF920F931F9304
:1042F000CF93DF93CDB7DEB765970FB6F894DEBFE7
:104300000FBECDBF8C0185E0F801DE015196019012
:104310000D928A95E1F7D8014C9011965C90119717
:104320001296EC9012971396CD90DC9060E086EA9E
:1043300091E00E94A50C86EAA82E81E0B82E80901C
:10434000A9019090AA01A4016091A7018091A60102
:104350000E94BB058111CAC1F090A801F601E819BD
:10436000F9094F0160E0FF2009F46DC1C5010E9409
:10437000A50C60908C0370908D033090AB01861477
:10438000970408F013C14091A9015091AA01B0907F
:10439000A601A090A701832D807F6A2D09F0ADC0F2
:1043A0008B2D0E94BB05FE2C81113BC0D8011196BC
:1043B0008C9111978A1135C08C918B1132C020914C
:1043C000AC013091AD0116968D919C91281739075B
:1043D00041F5E11026C0832D8F7080618093AB0181
:1043E00086EA91E00E9414198091AB01F80185835F
:1043F0008F2D65960FB6F894DEBF0FBECDBFDF914F
:10440000CF911F910F91FF90EF90DF90CF90BF90D1
:10441000AF909F908F907F906F905F904F903F9064
:104420000895F4EF6F16F1E07F0620F48091910378
:1044300080FF21C0A601652D842D0E94BB0581113E
:1044400018C081E08E2580FF16C04E2D652D842D6D
:104450000E94410A882379F086EA91E00E941419AB
:1044600088E0E6EAF1E0DF011D928A95E9F7F12C98
:10447000BFCF80E0E8CFA601652D842D0E94BB054B
:10448000811124C081E08E25B82FB170CB2E80FF22
:104490002BC04E2D652D842D0E94410AD82E8111EE
:1044A00023C0498A5A8A89899A890E94620C292FD5
:1044B00022952F70223060F0243088F49F7061F0D4
:1044C000F8019581907F41F4FD2C92CF80E0DCCF04
:1044D0009F7011F08823C1F3805E8830A8F3C80173
:1044E0000E941419DC2CF0CFEE2009F481CF8091CA
:1044F000AB0181608093AB01BACF8B2D0E94BB05CD
:10450000811124C0D80111968C9111978A111EC077
:104510008C918B111BC02091AC013091AD0116968E
:104520008D919C9117972817390781F4E1100EC0DF
:1045300015963C92C8010E94141988E0F801A6EA79
:10454000B1E001900D928A95E1F752CFC8010E9427
:104550006E0C882339F1EE2029F18091AB01803275
:10456000A0F02091A6013091A7013A8729871B86E8
:10457000DD86CC868E878091AC019091AD01988BC1
:104580008F87CE0109960E94141988E0F801A6EAE7
:10459000B1E001900D928A95E1F70E94FB20FF2483
:1045A000F39426CFC8010E941419F9CF832D807F80
:1045B00009F452CF9090A6018090A7014091A901E3
:1045C0005091AA01682D892D0E94BB0581111CC044
:1045D000F8018181881118C08081891115C020914E
:1045E000AC013091AD01868197812817390761F4BC
:1045F000E1100AC03582C8010E94141988E0D50173
:104600001D928A95E9F7F4CEC8010E946E0C8823AA
:1046100049F2EE2039F28091AB01803208F4B5CF37
:104620002091A6013091A7013A8329831B82DD8264
:10463000CC828E838091AC019091AD0198878F835D
:10464000CE010196A0CF86EA91E00E94A50C809150
:104650008C0390918D038816990680F6FE2CEE202F
:1046600009F4A0CFE090A601D090A7014091A90144
:104670005091AA016D2D8E2D0E94BB05811128C07D
:10468000F80181818D1124C080818E1121C020917B
:10469000AC013091AD018681978128173907C1F4AB
:1046A0008091910382FD49CF9091AB0190FD45CF60
:1046B000907F09F442CF8091AB018583903F09F44C
:1046C00039CF982F907F905F8F70892B858332CF61
:1046D000C8010E946E0C811158CF8091AB0181609E
:1046E0008093AB01C8010E94141982CEEE2009F418
:1046F00059CFC8010E946E0CF82E882309F452CFBE
:1047000088E0F801A6EAB1E001900D928A95E1F700
:104710008091A6019091A7010E94620C0E94FB204B
:1047200067CECF93DF93CDB7DEB760970FB6F8941F
:10473000DEBF0FBECDBF29873A874B875C876D8769
:104740007E878F87988BCE0109960E9469218111FF
:104750002FC088E0FE013996DE01119601900D927E
:104760008A95E1F74C855D856A8589850E94BB0540
:1047700081111EC0A091AE01B0E0CD0101968770FD
:1047800099272091EF012817190609F193E0AA0F44
:10479000BB1F9A95E1F7A155BE4F98E0FE013196F7
:1047A00001900D929A95E1F78093AE010E94610A03
:1047B0008091EF019091AE01891317C060960FB6FA
:1047C000F894DEBF0FBECDBFDF91CF9108950E9458
:1047D0004A111092AE011092EF0188E0E6EAF1E092
:1047E000DF011D928A95E9F7E3CFB8E08B9FC00106
:1047F000112481559E4F0E9469218823F9F28091EE
:10480000EF0190E00196877099278093EF01D0CF58
:10481000EF92FF920F931F93CF93DF938091CB0280
:10482000882361F0C091CA028CE0F82E8091CB02FF
:10483000C81758F01092CB021092CA02DF91CF91A4
:104840001F910F91FF90EF900895EE24E394EC0EEA
:10485000E092CA020C2F10E0CF9DE0011124C45356
:10486000DD4F4B815C81698188810E94BB0581118C
:104870001DC08E819F81892B21F4888599850196A1
:1048800051F4288139814A815B816C817D818E81DF
:104890009F810E949123F09EF001F19EF00D112462
:1048A000E453FD4F1482138210927104CE2DBECFBB
:1048B00010926F0310926E031092190180916D0394
:1048C00080936C030E94F4050C9408243F924F924D
:1048D0005F926F927F928F929F92AF92BF92CF9290
:1048E000DF92EF92FF920F931F93CF93DF93C091CC
:1048F0006C0397E0892E01E010E02CE0322E3EEFB1
:10490000932E4424439480916D038C1315C00E9410
:104910000824DF91CF911F910F91FF90EF90DF90CE
:10492000CF90BF90AF909F908F907F906F905F904F
:104930004F903F900C94F405D0E0FE01EE0FFF1F66
:10494000EC59FC4F80819181889ED001899EB00DE9
:104950001124A45DBC4F14962C911497211157C0BB
:104960005090CB02ECECF2E030E020E0712C5D01E5
:10497000251508F04AC0E284F384D501CD90DC907F
:104980006FEF7FEF612C462D50E0DA01AA0FBB1FBD
:10499000AC0DBD1D0D90BC91A02D109731F0EA1605
:1049A000FB0609F4BA016394EECF6F3F7607A1F1DD
:1049B000D80102C0AA0FBB1F6A95E2F77A2AB80194
:1049C00002C0660F771F6A94E2F7AB0141505109AC
:1049D00074161506F9F4329EF001339EF00D112481
:1049E000E453FD4F889ED001899EB00D1124A45D33
:1049F000BC4F12962D913C9113973783268390825A
:104A000091829187808715964C920E94C6052196C7
:104A1000C37079CF148213822F5F3F4F3C96A8CF8B
:104A20002F923F924F925F926F927F928F929F92BE
:104A3000AF92BF92CF92DF92EF92FF920F931F93AC
:104A4000CF93DF93CDB7DEB769970FB6F894DEBF8B
:104A50000FBECDBF942F498B252F5A8B6B8B7C8B30
:104A60008D8B4C895D89622F892F0E94BB05811136
:104A700009C08091830190918401019690938401F3
:104A8000809383018B898111109271041D861E868B
:104A90001F86188A85E0FE017196DE011996019045
:104AA0000D928A95E1F780910E0282FD1EC08091E1
:104AB000760390917703892BC1F00E9477052091AE
:104AC000F1013091F201821B930B2091760330911A
:104AD00077038217930720F08091F30182FFF5C1DD
:104AE0000E94FB0981110E94C1094C855D856A8580
:104AF00089850E94BB05811111C061E0CE01099634
:104B00000E94A50C6C018B8527EFC2162CE5D206FE
:104B100081F4882321F181E08093190129853A8568
:104B20004B855C856D857E858F8598890E94912354
:104B3000C5C038EFC3163CE5D30629F4882379F0C5
:104B40000E945824EBCF49EFC4164CE5D40639F443
:104B5000882329F0809119018111F2CFDCCF0CE27A
:104B600013E0512CB12CA12C22242394312C2EEFB4
:104B7000422EF8014081518188248A94982C20E0AB
:104B8000822F90E0FC01EE0FFF1FE40FF51F608104
:104B900071816115710531F0C616D70609F44C0113
:104BA0002F5FEECFF12CFFEF8F169F0609F448C060
:104BB000F8014481F09019018F2D411180E0F82F08
:104BC000F170FF2EF801E58086819B85992309F419
:104BD0000CC1FF2009F409C160908A0370908B0317
:104BE000E11012C0A10101C0440F8A94EAF7842B9E
:104BF00086838091C8029091C9028615970520F49A
:104C00007092C9026092C802C10102C0880F991F48
:104C10002A95E2F70197F80126812817190681F4F1
:104C200080916E0390916F03009709F460C00E9419
:104C300068056816790608F05AC021E0F801248357
:104C40005F28FFEFAF1ABF0A095F1F4F28E0A216C7
:104C5000B10409F08ECF8B85882309F421C155203A
:104C600009F41EC10E94770590936F0380936E0331
:104C70008091CB02883010F591E0980F9093CB0291
:104C800098E0FE013996DE01119601900D929A95F9
:104C9000E1F73CE0839FC001112484539D4F28E03D
:104CA000FE013196DC0101900D922A95E1F72FEF7C
:104CB0003FEFFC0131872087D386C28669960FB605
:104CC000F894DEBF0FBECDBFDF91CF911F910F9142
:104CD000FF90EF90DF90CF90BF90AF909F908F901C
:104CE0007F906F905F904F903F902F9008958091AC
:104CF0006C0350916D03982FF0E0E0E0851314C031
:104D000090936C03E017F10709F49ACF90E0FC014F
:104D1000EE0FFF1FEC59FC4FB182A0820196837009
:104D2000992780936D038CCF682E712CF301EE0FC1
:104D3000FF1FEC59FC4F2081318147E0429FD00199
:104D4000439FB00D1124A45DBC4F6D917C911197D0
:104D5000798F688F40E020E030E0E32FF0E0EE0F45
:104D6000FF1F688D798DE60FF71F80809180811479
:104D70009104E1F0F8010190F081E02DFF8BEE8BC2
:104D800020E005C08616970609F44F2D2F5FE22F0D
:104D9000F0E0EE0FFF1F6E897F89E60FF71F60813D
:104DA00071816115710571F73F5FD7CF4423D1F051
:104DB000F801231708F0FD0121E024830E171F07D7
:104DC00021F490936C03F42E3BCF981305C0AE17DB
:104DD000BF0711F49F5F937093012F5F3F4F822FA6
:104DE00083708CCFF0E0E0E0F7CF90E0E1101FC0DF
:104DF000B10102C0660F771F2A95E2F79B0121508F
:104E000031098217930731F4442309F447C0C501DF
:104E10000E94C605C10101C0880F8A94EAF7982F45
:104E20009095F801868189238683FE2C09CF9C0109
:104E3000082C02C0359527950A94E2F7A901417024
:104E40005527BC016150710986239723892B11F5E1
:104E5000452B01F1F80182819381892BC1F01B82DE
:104E60001C821D821E8249824A820E9477058160CF
:104E7000582F9D838C83F801828193818F8398873B
:104E800029813A814B816D817E810E949123F801B5
:104E90001582C0CFF22FF170EF2EBCCFEF2CBACF1E
:104EA00090916C0380916D03981731F00E946624F5
:104EB000552009F433CE02CF0E94082410926F03CC
:104EC00010926E030E94F405F3CF82E00E94EC1072
:104ED00007CECF93DF9300D000D00F92CDB7DEB7CF
:104EE0009093A00280939F02811520E2920748F4DC
:104EF0000F900F900F900F900F90DF91CF910C9427
:104F00009E148EEF89838A831B820E9477058160BD
:104F1000782F9D838C8349815A816B818D810F907D
:104F20000F900F900F900F90DF91CF910C94102560
:104F30000F931F93CF93DF938C01EB0165E472E035
:104F40008C2F0E942F0E892BA1F4809192039091B7
:104F500093030E94B80BDD27C35CDD4F8881F80105
:104F600010821882833009F148F4813059F0823080
:104F700081F0DF91CF911F910F9108958430D1F08E
:104F80008530B9F78091450290914602009789F3E8
:104F900006C08091470290914802009799F3DF91F3
:104FA000CF911F910F910C946927809149029091A4
:104FB0004A02F3CF80914B0290914C02009779F70F
:104FC000209145023091460280914702909148021B
:104FD00021153105D9F2009711F7C901E0CFCF9320
:104FE000DF9300D000D00F92CDB7DEB79093A00230
:104FF00080939F02811520E2920748F40F900F9052
:105000000F900F900F90DF91CF910C942D188EEF91
:1050100089838A8381E08B830E9477058160782F62
:105020009D838C8349815A816B818D810F900F9074
:105030000F900F900F90DF91CF910C941025CF938C
:10504000DF93EC010E94EF278091920390919303EC
:105050000E94B80BCE01DF91CF910C9469270F937A
:105060001F93CF93DF938C01862F65E472E00E943B
:105070002F0E892BC9F4C0914502D091460220978A
:1050800099F0F8018081833069F4CE010E941F28D5
:10509000CE010E941F28CE01DF91CF911F910F9169
:1050A0000C941F288430B8F7DF91CF911F910F9196
:1050B00008950F931F93CF93DF938C01EB0165E469
:1050C00072E08C2F0E942F0E892B09F064C0FE0124
:1050D000FF27D8018C91E35CFD4F8130D9F41996FC
:1050E0009C911997992311F080830CC01A969C917A
:1050F0009923D1F382E08083809147029091480206
:105100000097D9F48091450290914602009709F4E6
:1051100042C013C08230E9F519968C91199781111C
:105120002DC01A968C9181110EC083E080838091EE
:10513000490290914A02009719F1DF91CF911F9196
:105140000F910C94EF2784E0808380914B02909123
:105150004C02009791F7809145029091460200978A
:10516000F9F00E941F288091470290914802009711
:1051700021F78091450290914602DFCF85E0808340
:105180008091450290914602009729F00E941F28C5
:10519000F0CF86E08083DF91CF911F910F9108952A
:1051A0008091470290914802B1CF1F920F920FB6A3
:1051B0000F9211242F933F934F935F936F937F939D
:1051C0008F939F93AF93BF93CF93DF93EF93FF930F
:1051D000D091E900DF708091EC00C82FC17080FD94
:1051E000C0E81092E9008091F000877F8093F00082
:1051F00078940E9455111092E9008091F000886027
:105200008093F000CD2BCF70C093E900FF91EF9118
:10521000DF91CF91BF91AF919F918F917F916F91CE
:105220005F914F913F912F910F900FBE0F901F9064
:1052300018951F920F920FB60F9211242F933F9340
:105240004F935F936F937F938F939F93AF93BF938E
:10525000EF93FF938091E10082FF09C08091E2000B
:1052600082FF05C08091E1008B7F8093E1008091F7
:10527000DA0080FF24C08091D80080FF20C0809198
:10528000DA008E7F8093DA008091D90080FF9DC084
:1052900080E189BD82E189BD09B400FEFDCF81E0D6
:1052A00080936F0480915904811109C00E94B20358
:1052B0000E94A5048091E20084608093E2008091C6
:1052C000E10080FF17C08091E20080FF13C0809151
:1052D000E2008E7F8093E2008091E2008061809303
:1052E000E2008091D80080628093D80019BC85E0EC
:1052F00080936F048091E10084FF2BC08091E200D5
:1053000084FF27C080E189BD82E189BD89B5982FDE
:10531000917080FFFBCF8091D8008F7D8093D80063
:105320008091E1008F7E8093E1008091E2008F7E8A
:105330008093E2008091E20081608093E20080919E
:105340006604882309F447C084E080936F04809149
:105350006F048091E10083FF27C08091E20083FF0A
:1053600023C08091E100877F8093E10082E08093F9
:105370006F04109266048091E1008E7F8093E100BB
:105380008091E2008E7F8093E2008091E200806154
:105390008093E20042E060E080E00E94730480912C
:1053A000F00088608093F000FF91EF91BF91AF9182
:1053B0009F918F917F916F915F914F913F912F912D
:1053C0000F900FBE0F901F90189519BC10926F048C
:1053D0001092590474CF8091E30087FD93E090937D
:1053E0006F04B5CF78941F921FB61F9211248F932C
:1053F0009F93AF93BF938091520490915304A091D7
:105400005404B09155040196A11DB11D809352041E
:1054100090935304A0935404B0935504BF91AF915B
:105420009F918F911F901FBE1F9018951F921FB6BE
:105430001F9211248F939F93AF93BF938091510438
:10544000811113C08091520490915304A09154048F
:10545000B09155044196A11DB11D809352049093C3
:105460005304A0935404B0935504BF91AF919F91FE
:105470008F911F901FBE1F901895CDB7DEB7E49790
:105480000FB6F894DEBF0FBECDBF84B7877F84BF51
:105490000FB6F894A89580916000886180936000B1
:1054A000109260000FBE80E890E00FB6F8948093F1
:1054B0006100909361000FBE85B7806885BF85B796
:1054C000806885BF8DED97E0909379018093780196
:1054D0000E94430E0E94990E0E94C20B0E94B203CA
:1054E0000E94A5048091E20084608093E200789499
:1054F00080916F048823A1F01091E9001F709091B2
:10550000EC00892F817090FD80E8182B1092E90043
:105510008091E80083FD0E9455111F701093E900EF
:1055200082E084BD93E095BD9AEF97BD80936E00B5
:105530000E94B30C811102C00E94200E04E511E00C
:10554000E9E5EE2EE1E0FE2ED8018D918D018F3F31
:1055500011F00E94DF07E016F106B1F709E511E04E
:1055600078E6E72E71E0F72EF80181918F018F3FE9
:1055700011F00E94DF07E016F106B1F78AE0E6E2DB
:10558000F2E0DF01282F1D922A95E9F7E3E0F2E02F
:10559000DF011D928A95E9F790E080E00E94DD31FD
:1055A000893E9E4F21F40E94B30C811102C00E94DB
:1055B000B61482E090E00E94D531809373030E947C
:1055C000CC0C90930E0280930D020E94F20EEFE33A
:1055D000FCE93197F1F700C000000E94F20E8091C3
:1055E000260280FF08C06FEF7FEF90E080E00E940E
:1055F00001320E94940B83E090E00E94D5310E941A
:10560000461180E091E090934E0480934D048E010A
:105610000F5F1F4F80916F0450E1E52E62E1F62E7F
:10562000853009F41FC10E94F20E882359F08FB70C
:10563000F894409152045091530460915404709135
:1056400055048FBFA6E2B2E0EFE0F2E0F12CE12CCE
:105650007E2D8D919D91219131912817390709F463
:1056600011C12827392760E0CC24C394D12CA9018B
:105670004C215D21452B09F4FFC06BA77CA79C0141
:105680002C213D2191E0232B09F490E09DA70E945D
:1056900077058160782F9FA78EA74BA55CA56DA588
:1056A0008FA50E941025F701EE0FFF1FE15FFD4F50
:1056B00080819181C826D926D182C08280910C0137
:1056C00090910D01F12CE6E1EE2E019609F022C138
:1056D00080911901811128C180918F0380FF1EC024
:1056E0008091180182FF1AC00E9477052091C402A0
:1056F0003091C502AC01421B530B20911601309131
:1057000017014217530750F029E132E041E0BC0194
:105710008091C6029091C7020E94581886E0E7E384
:10572000F2E0D80101900D928A95E1F7C09039021C
:10573000D0903A02E0903B02F0903C021092390285
:1057400010923A0210923B0210923C028C2D8D294D
:1057500009F41FC180913502909136020E946805BC
:10576000AC0190913102992309F409C1809114018F
:105770008417150608F00DC19F3F19F09F5F9093A5
:105780003102CC2059F00E9416079FEF1C140CF434
:1057900091E0899F802D112480933902DD2059F0FA
:1057A0000E9416079FEF1D140CF491E0899F802D35
:1057B000112480933A0230913902332309F4E9C06D
:1057C00020913A02222309F4E4C045EB3403C001DE
:1057D0001124992309F42DC19093390245EB240338
:1057E00090011124332309F428C130933A02D1C027
:1057F00080916F04843021F11092510428E130E04F
:1058000040E40FB6F894A895209360000FBE409333
:10581000600083B7817F846083BF83B7816083BF6B
:105820007894889583B78E7F83BF0FB6F894A89538
:1058300080916000886180936000109260000FBECC
:1058400080916504882371F00E94F20EE6E2F2E096
:1058500081919191892B09F0E7C480E392E08E1742
:105860009F07B1F780916F04853009F4C1CF0E9482
:105870004A110E94AF05D7CE6F5FCC0CDD1C6F3094
:1058800009F0F5CE9FEFE91AF90A25E0E216F104D6
:1058900009F0DECE8FEF88AB89AB1AAA0E9477059C
:1058A0008160782F9CAB8BAB48A959A96AA98CA9B8
:1058B0000E94102503CFE89EF001E99EF00D11240F
:1058C000E556FC4FC288D388C114D10421F4C0909E
:1058D0008C03D0908D03E89EF001E99EF00D112419
:1058E000E556FC4F86818823A1F0858596850E9428
:1058F0006805C816D90668F4FE9C60011124C6012B
:1059000085569C4F0E947710C6018F559C4F0E9470
:105910003210F3948F2D90E020910C0130910D0105
:105920002817390744F6D4CE80916E0390916F0307
:10593000009709F4D1CE0E9468052091C8023091E9
:10594000C9022817390708F0C7CE90916C038091DF
:105950006D03981759F00E9466241092C9021092A4
:10596000C80210926F0310926E03B6CE0E940824F4
:1059700010926F0310926E030E94F405ADCE209139
:1059800015018AE0289F900111242417350708F497
:10599000F5CE8E2D8F2909F45EC08091330290914F
:1059A00034020E946805AC0190913002992309F4F9
:1059B00048C0809110018417150608F04CC09F3F25
:1059C00019F09F5F90933002EE2059F00E94DD069F
:1059D0009FEF1E140CF491E0899F802D1124809379
:1059E0003B02FF2059F00E94DD069FEF1F140CF4CC
:1059F00091E0899F802D112480933C0230913B02DD
:105A0000332349F120913C02222329F145EB340351
:105A1000C0011124992309F478C090933B0245EB0F
:105A2000240390011124332309F473C030933C0202
:105A300012C081E080933902D1CE81E080933A0296
:105A4000A8CF209111018AE0289F900111242417EA
:105A5000350708F4B6CF8091390290913A02892B2C
:105A600090913B02892B90913C02892B11F00E946E
:105A7000330686E0F801A7E3B2E001900D928A9523
:105A8000E1F70E94AF0590912102891380932102D2
:105A900080916F04843009F0BDCD83E08093E900EC
:105AA0008091E80082FFB6CD8091E80090E085FF0C
:105AB00009C00E94D10370E2C72ED12C780188233F
:105AC000A9F191E08091E8008B778093E800992319
:105AD00009F4A0CDE090A102F090A2028981E11426
